:100000000C9462000C948A000C948A000C948A0070
:100010000C948A000C948A000C948A000C948A0038
:100020000C948A000C948A000C948A000C945A0256
:100030000C948A000C948A000C948A000C948A0018
:100040000C9410020C948A000C948A000C948A0080
:100050000C948A000C948A000C948A000C948A00F8
:100060000C948A000C948A000000000024002700F1
:100070002A0000000000250028002B0000000000DE
:1000800023002600290004040404040404040202DA
:100090000202020203030303030301020408102007
:1000A0004080010204081020010204081020000012
:1000B0000008000201000003040700000000000027
:1000C0000000A80411241FBECFEFD8E0DEBFCDBFD3
:1000D00011E0A0E0B1E0E4E7FAE002C005900D9283
:1000E000A030B107D9F721E0A0E0B1E001C01D9236
:1000F000A533B207E1F710E0C2E6D0E004C02197D3
:10010000FE010E943205C136D107C9F70E941603CD
:100110000C9438050C940000CF92DF92EF92FF927E
:10012000DC01A03282E0B807D4F5A53BB10514F09C
:10013000A4EBB0E04091330128E830E0241B310902
:1001400047FD3395220F331F220F331F6901330FF1
:10015000EE08FF084091340128E532E0241B310904
:1001600047FD3395220F331F220F331F032E000C40
:10017000440B550B2C193D094E095F09B7FF02C00E
:10018000B0E0A0E00E94ED0424EB30E040E050E05D
:100190000E94C304C20ED31EE41EF51ED601E091D8
:1001A0003201EC3080F52091330188E890E0821B29
:1001B000910927FD9395880F991F880F991FA817FC
:1001C000B90784F02091340188E592E0821B9109FF
:1001D00027FD9395880F991F880F991FA817B907B6
:1001E0000CF4CD010297880F991F4FB7F8942E2F6A
:1001F00030E0F901EE0FFF1FE20FF31FE25FFE4F49
:10020000928381834FBFFF90EF90DF90CF9008954E
:10021000833081F028F4813099F08230A9F008957C
:100220008730A9F08830C9F08430B1F48091800023
:100230008F7D03C0809180008F7780938000089528
:1002400084B58F7784BD089584B58F7DFBCF809171
:10025000B0008F778093B00008958091B0008F7DBB
:10026000F9CFCF93DF93282F30E0F901E255FF4F0C
:100270008491F901E656FF4FD491F901EA57FF4FF7
:10028000C491CC23A1F081110E940801EC2FF0E071
:10029000EE0FFF1FE458FF4FA591B491EC91ED23B1
:1002A00081E090E009F480E0DF91CF91089580E053
:1002B00090E0FACF1F93CF93DF93282F30E0F9011E
:1002C000E255FF4F8491F901E656FF4FD491F901B1
:1002D000EA57FF4FC491CC23A9F0162F81110E9439
:1002E0000801EC2FF0E0EE0FFF1FEE58FF4FA59135
:1002F000B4918FB7F894EC91111108C0D095DE231A
:10030000DC938FBFDF91CF911F910895DE2BF8CF43
:10031000CF93DF9390E0FC01E656FF4F24918A577C
:100320009F4FFC0184918823D1F090E0880F991FA2
:10033000FC01E859FF4FA591B491FC01EE58FF4F25
:10034000C591D49161110EC09FB7F8948C91E22FA2
:10035000E0958E238C932881E223E8839FBFDF9171
:10036000CF9108958FB7F894EC91E22BEC938FBF67
:10037000F6CF3FB7F8948091070190910801A091C2
:100380000901B0910A0126B5A89B05C02F3F19F0BD
:100390000196A11DB11D3FBFBA2FA92F982F882705
:1003A000BC01CD01620F711D811D911D42E0660FE0
:1003B000771F881F991F4A95D1F708958F929F92B2
:1003C000AF92BF92CF92DF92EF92FF924B015C010E
:1003D0000E94B9016B017C010E94B9016C197D0971
:1003E0008E099F09683E734081059105A8F321E0BD
:1003F000821A9108A108B10888EEC80E83E0D81EC1
:10040000E11CF11C81149104A104B10429F7FF90AF
:10041000EF90DF90CF90BF90AF909F908F90089516
:100420001F920F920FB60F9211242F933F938F9329
:100430009F93AF93BF938091030190910401A0918A
:100440000501B09106013091020123E0230F2D3701
:1004500058F50196A11DB11D20930201809303015F
:1004600090930401A0930501B093060180910701C8
:1004700090910801A0910901B0910A010196A11D76
:10048000B11D8093070190930801A0930901B093D7
:100490000A01BF91AF919F918F913F912F910F9042
:1004A0000FBE0F901F90189526E8230F0296A11DEE
:1004B000B11DD2CF1F920F920FB60F9211242F931E
:1004C0003F934F935F936F937F938F939F93AF93DC
:1004D000BF93CF93DF93EF93FF9380910101C0917E
:1004E0000001D0E087FF24C01092850010928400A4
:1004F000809101018F5F8093010180910101082E9D
:10050000000C990B8C179D0724F4809101018C300D
:10051000C4F18091840090918500049680349C49B8
:1005200008F47AC08091840090918500049676C08A
:1005300080910101082E000C990B8C179D07C4F6C1
:10054000E09101018E2FEE0F990BFC01EE0FFF1FC2
:10055000E80FF91FE25FFE4F808186FFC9CFE0916F
:1005600001018E2FEE0F990BFC01EE0FFF1FE80F1C
:10057000F91FE25FFE4F808160E08F730E945A0195
:10058000B7CF2091840030918500E09101018E2F3A
:10059000EE0F990BFC01EE0FFF1FE80FF91FE25F52
:1005A000FE4F81819281820F931F909389008093E7
:1005B0008800E09101018E2FEE0F990BFC01EE0FE8
:1005C000FF1FE80FF91FE25FFE4F808186FF11C019
:1005D000E09101018E2FEE0F990BFC01EE0FFF1F32
:1005E000E80FF91FE25FFE4F808161E08F730E9488
:1005F0005A01FF91EF91DF91CF91BF91AF919F9100
:100600008F917F916F915F914F913F912F910F90BB
:100610000FBE0F901F90189580E49CE9909389007D
:10062000809388008FEF80930101E3CF789484B5A5
:10063000826084BD84B5816084BD85B5826085BDDE
:1006400085B5816085BD80916E00816080936E006C
:10065000109281008091810082608093810080915E
:10066000810081608093810080918000816080930F
:1006700080008091B10084608093B1008091B000CF
:1006800081608093B00080917A00846080937A00CA
:1006900080917A00826080937A0080917A008160F4
:1006A00080937A0080917A00806880937A0010921B
:1006B000C10060E089E00E94880160E08AE00E9459
:1006C000880160E088E00E94880161E082E00E9489
:1006D000880161E083E00E94880161E084E00E947B
:1006E000880161E085E00E94880161E086E00E9467
:1006F0008801809132018C3008F051C061E08BE0BC
:100700000E94880180913201282F30E0F901EE0F1C
:10071000FF1FE20FF31FE25FFE4F9081907C9B6012
:10072000908310923301109234012CE0622F0E94CA
:100730002605829FB001112430E020E0AB01420F7A
:10074000531FFA01EE0FFF1FE40FF51FE25FFE4F8C
:10075000908196FD16C02F5F3F4F2C30310571F709
:1007600081110FC01092800082E08093810010926E
:10077000850010928400B19A80916F00826080930E
:100780006F00E09132018E2F90E0FC01EE0FFF1F11
:10079000E80FF91FE25FFE4F8081806480838AE565
:1007A00090E00E948C0000E010E082E3E82EF12C43
:1007B00092E8C92ED12C8AE590E00E948C0089E055
:1007C0000E9431010197D9F48AE00E94310101971A
:1007D000B1F488E00E943101019789F461E082E080
:1007E0000E945A0161E083E00E945A0161E084E0C6
:1007F0000E945A0161E085E00E945A0119C088E018
:100800000E943101892B09F058C061E082E00E940A
:100810005A0160E083E00E945A0161E084E00E9496
:100820005A0160E085E00E945A0181E080930D0149
:100830006CE271E080E090E00E94DE0180910D01A9
:10084000882309F47EC064EF71E080E090E00E94AC
:10085000DE0161E082E00E945A0161E083E00E94D3
:100860005A0161E084E00E945A0161E085E00E9443
:100870005A0161E086E00E945A0164EF71E080E075
:1008800090E00E94DE01F0920C01E0920B01C09119
:100890000B01D0910C01C338D10574F5CE010E9433
:1008A0008C006AE070E080E090E00E94DE0121961A
:1008B000D0930C01C0930B01EACF89E00E94310173
:1008C000892B31F461E082E00E945A0160E08BCF15
:1008D0008AE00E943101892B09F0AACF61E082E011
:1008E0000E945A0161E083E00E945A0161E084E0C5
:1008F0000E945A0160E07FCFD0920C01C0920B01A0
:10090000C0910B01D0910C01C233D1057CF0CE0116
:100910000E948C006AE070E080E090E00E94DE01BE
:100920002197D0930C01C0930B01EACF60E086E0E1
:100930000E945A018AE590E00E948C0010920D01FD
:100940007DCF0115110509F436CF0E94000033CF89
:10095000809100018C3098F491E0980F9093000101
:100960008093320190E0FC01EE0FFF1FE80FF91FAA
:10097000E25FFE4F88EB9BE09283818308958FEFC7
:10098000809332010895052E97FB1EF400940E9477
:10099000DA0457FD07D00E94F50407FC03D04EF49B
:1009A0000C94DA0450954095309521953F4F4F4F68
:1009B0005F4F089590958095709561957F4F8F4F0B
:1009C0009F4F08950E941705A59F900DB49F900D0D
:1009D000A49F800D911D11240895B7FF0C94E2048B
:1009E0000E94E204821B930B0895A1E21A2EAA1B17
:1009F000BB1BFD010DC0AA1FBB1FEE1FFF1FA217CF
:100A0000B307E407F50720F0A21BB30BE40BF50BCB
:100A1000661F771F881F991F1A9469F76095709554
:100A2000809590959B01AC01BD01CF010895A29FD7
:100A3000B001B39FC001A39F700D811D1124911DB2
:100A4000B29F700D811D1124911D0895991B79E0AD
:100A500004C0991F961708F0961B881F7A95C9F74E
:100A600080950895EE0FFF1F0590F491E02D0994F5
:040A7000F894FFCF28
:00000001FF
